{
  "address": "0x47dCfc416F8e9c6FbEcfB7f4626815D6ff3f061c",
  "abi": [
    {
      "inputs": [
        {
          "internalType": "string",
          "name": "name_",
          "type": "string"
        },
        {
          "internalType": "string",
          "name": "symbol_",
          "type": "string"
        }
      ],
      "stateMutability": "nonpayable",
      "type": "constructor"
    },
    {
      "inputs": [],
      "name": "AlreadyWhitelistedDestination",
      "type": "error"
    },
    {
      "inputs": [],
      "name": "AlreadyWhitelistedOperator",
      "type": "error"
    },
    {
      "inputs": [],
      "name": "InsufficientPoints",
      "type": "error"
    },
    {
      "inputs": [],
      "name": "NotAllowedAsDestination",
      "type": "error"
    },
    {
      "inputs": [],
      "name": "NotAllowedToBurn",
      "type": "error"
    },
    {
      "inputs": [],
      "name": "NotAllowedToMint",
      "type": "error"
    },
    {
      "inputs": [],
      "name": "NotAllowedToOperate",
      "type": "error"
    },
    {
      "inputs": [],
      "name": "NotWhitelistedDestination",
      "type": "error"
    },
    {
      "inputs": [],
      "name": "NotWhitelistedOperator",
      "type": "error"
    },
    {
      "inputs": [],
      "name": "TokenDoesntExist",
      "type": "error"
    },
    {
      "anonymous": false,
      "inputs": [
        {
          "indexed": false,
          "internalType": "address",
          "name": "destination",
          "type": "address"
        }
      ],
      "name": "AddedDestination",
      "type": "event"
    },
    {
      "anonymous": false,
      "inputs": [
        {
          "indexed": false,
          "internalType": "address",
          "name": "operator",
          "type": "address"
        }
      ],
      "name": "AddedOperator",
      "type": "event"
    },
    {
      "anonymous": false,
      "inputs": [
        {
          "indexed": false,
          "internalType": "uint256",
          "name": "tokenId",
          "type": "uint256"
        },
        {
          "indexed": false,
          "internalType": "uint256",
          "name": "points",
          "type": "uint256"
        },
        {
          "indexed": false,
          "internalType": "address",
          "name": "operator",
          "type": "address"
        }
      ],
      "name": "AddedPoints",
      "type": "event"
    },
    {
      "anonymous": false,
      "inputs": [
        {
          "indexed": true,
          "internalType": "address",
          "name": "owner",
          "type": "address"
        },
        {
          "indexed": true,
          "internalType": "address",
          "name": "approved",
          "type": "address"
        },
        {
          "indexed": true,
          "internalType": "uint256",
          "name": "tokenId",
          "type": "uint256"
        }
      ],
      "name": "Approval",
      "type": "event"
    },
    {
      "anonymous": false,
      "inputs": [
        {
          "indexed": true,
          "internalType": "address",
          "name": "owner",
          "type": "address"
        },
        {
          "indexed": true,
          "internalType": "address",
          "name": "operator",
          "type": "address"
        },
        {
          "indexed": false,
          "internalType": "bool",
          "name": "approved",
          "type": "bool"
        }
      ],
      "name": "ApprovalForAll",
      "type": "event"
    },
    {
      "anonymous": false,
      "inputs": [
        {
          "indexed": true,
          "internalType": "address",
          "name": "previousOwner",
          "type": "address"
        },
        {
          "indexed": true,
          "internalType": "address",
          "name": "newOwner",
          "type": "address"
        }
      ],
      "name": "OwnershipTransferred",
      "type": "event"
    },
    {
      "anonymous": false,
      "inputs": [
        {
          "indexed": false,
          "internalType": "uint256",
          "name": "tokenId",
          "type": "uint256"
        },
        {
          "indexed": false,
          "internalType": "uint256",
          "name": "points",
          "type": "uint256"
        },
        {
          "indexed": false,
          "internalType": "address",
          "name": "operator",
          "type": "address"
        }
      ],
      "name": "RedeemedPoints",
      "type": "event"
    },
    {
      "anonymous": false,
      "inputs": [
        {
          "indexed": false,
          "internalType": "address",
          "name": "destination",
          "type": "address"
        }
      ],
      "name": "RemovedDestination",
      "type": "event"
    },
    {
      "anonymous": false,
      "inputs": [
        {
          "indexed": false,
          "internalType": "address",
          "name": "operator",
          "type": "address"
        }
      ],
      "name": "RemovedOperator",
      "type": "event"
    },
    {
      "anonymous": false,
      "inputs": [
        {
          "indexed": true,
          "internalType": "address",
          "name": "from",
          "type": "address"
        },
        {
          "indexed": true,
          "internalType": "address",
          "name": "to",
          "type": "address"
        },
        {
          "indexed": true,
          "internalType": "uint256",
          "name": "tokenId",
          "type": "uint256"
        }
      ],
      "name": "Transfer",
      "type": "event"
    },
    {
      "inputs": [
        {
          "internalType": "address",
          "name": "destinationToAdd",
          "type": "address"
        }
      ],
      "name": "addDestination",
      "outputs": [],
      "stateMutability": "nonpayable",
      "type": "function"
    },
    {
      "inputs": [
        {
          "internalType": "address",
          "name": "operatorToAdd",
          "type": "address"
        }
      ],
      "name": "addOperator",
      "outputs": [],
      "stateMutability": "nonpayable",
      "type": "function"
    },
    {
      "inputs": [
        {
          "internalType": "uint256",
          "name": "tokenId",
          "type": "uint256"
        },
        {
          "internalType": "uint256",
          "name": "points",
          "type": "uint256"
        }
      ],
      "name": "addPoints",
      "outputs": [],
      "stateMutability": "nonpayable",
      "type": "function"
    },
    {
      "inputs": [
        {
          "internalType": "address",
          "name": "to",
          "type": "address"
        },
        {
          "internalType": "uint256",
          "name": "tokenId",
          "type": "uint256"
        }
      ],
      "name": "approve",
      "outputs": [],
      "stateMutability": "nonpayable",
      "type": "function"
    },
    {
      "inputs": [
        {
          "internalType": "address",
          "name": "owner",
          "type": "address"
        }
      ],
      "name": "balanceOf",
      "outputs": [
        {
          "internalType": "uint256",
          "name": "",
          "type": "uint256"
        }
      ],
      "stateMutability": "view",
      "type": "function"
    },
    {
      "inputs": [
        {
          "internalType": "uint256",
          "name": "tokenId",
          "type": "uint256"
        }
      ],
      "name": "burn",
      "outputs": [],
      "stateMutability": "nonpayable",
      "type": "function"
    },
    {
      "inputs": [],
      "name": "burnCounter",
      "outputs": [
        {
          "internalType": "uint256",
          "name": "",
          "type": "uint256"
        }
      ],
      "stateMutability": "view",
      "type": "function"
    },
    {
      "inputs": [],
      "name": "burner",
      "outputs": [
        {
          "internalType": "address",
          "name": "",
          "type": "address"
        }
      ],
      "stateMutability": "view",
      "type": "function"
    },
    {
      "inputs": [
        {
          "internalType": "uint256",
          "name": "tokenId",
          "type": "uint256"
        }
      ],
      "name": "currentPoints",
      "outputs": [
        {
          "internalType": "uint256",
          "name": "",
          "type": "uint256"
        }
      ],
      "stateMutability": "view",
      "type": "function"
    },
    {
      "inputs": [
        {
          "internalType": "uint256",
          "name": "tokenId",
          "type": "uint256"
        }
      ],
      "name": "getApproved",
      "outputs": [
        {
          "internalType": "address",
          "name": "",
          "type": "address"
        }
      ],
      "stateMutability": "view",
      "type": "function"
    },
    {
      "inputs": [
        {
          "internalType": "address",
          "name": "owner",
          "type": "address"
        },
        {
          "internalType": "address",
          "name": "operator",
          "type": "address"
        }
      ],
      "name": "isApprovedForAll",
      "outputs": [
        {
          "internalType": "bool",
          "name": "",
          "type": "bool"
        }
      ],
      "stateMutability": "view",
      "type": "function"
    },
    {
      "inputs": [
        {
          "internalType": "address",
          "name": "dest",
          "type": "address"
        }
      ],
      "name": "isDestination",
      "outputs": [
        {
          "internalType": "bool",
          "name": "",
          "type": "bool"
        }
      ],
      "stateMutability": "view",
      "type": "function"
    },
    {
      "inputs": [
        {
          "internalType": "address",
          "name": "op",
          "type": "address"
        }
      ],
      "name": "isOperator",
      "outputs": [
        {
          "internalType": "bool",
          "name": "",
          "type": "bool"
        }
      ],
      "stateMutability": "view",
      "type": "function"
    },
    {
      "inputs": [
        {
          "internalType": "address",
          "name": "to",
          "type": "address"
        }
      ],
      "name": "mint",
      "outputs": [],
      "stateMutability": "nonpayable",
      "type": "function"
    },
    {
      "inputs": [],
      "name": "mintCounter",
      "outputs": [
        {
          "internalType": "uint256",
          "name": "",
          "type": "uint256"
        }
      ],
      "stateMutability": "view",
      "type": "function"
    },
    {
      "inputs": [],
      "name": "minter",
      "outputs": [
        {
          "internalType": "address",
          "name": "",
          "type": "address"
        }
      ],
      "stateMutability": "view",
      "type": "function"
    },
    {
      "inputs": [],
      "name": "name",
      "outputs": [
        {
          "internalType": "string",
          "name": "",
          "type": "string"
        }
      ],
      "stateMutability": "view",
      "type": "function"
    },
    {
      "inputs": [],
      "name": "owner",
      "outputs": [
        {
          "internalType": "address",
          "name": "",
          "type": "address"
        }
      ],
      "stateMutability": "view",
      "type": "function"
    },
    {
      "inputs": [
        {
          "internalType": "uint256",
          "name": "tokenId",
          "type": "uint256"
        }
      ],
      "name": "ownerOf",
      "outputs": [
        {
          "internalType": "address",
          "name": "",
          "type": "address"
        }
      ],
      "stateMutability": "view",
      "type": "function"
    },
    {
      "inputs": [
        {
          "internalType": "uint256",
          "name": "tokenId",
          "type": "uint256"
        },
        {
          "internalType": "uint256",
          "name": "points",
          "type": "uint256"
        }
      ],
      "name": "redeemPoints",
      "outputs": [],
      "stateMutability": "nonpayable",
      "type": "function"
    },
    {
      "inputs": [
        {
          "internalType": "address",
          "name": "destinationToRemove",
          "type": "address"
        }
      ],
      "name": "removeDestination",
      "outputs": [],
      "stateMutability": "nonpayable",
      "type": "function"
    },
    {
      "inputs": [
        {
          "internalType": "address",
          "name": "operatorToRemove",
          "type": "address"
        }
      ],
      "name": "removeOperator",
      "outputs": [],
      "stateMutability": "nonpayable",
      "type": "function"
    },
    {
      "inputs": [],
      "name": "renounceOwnership",
      "outputs": [],
      "stateMutability": "nonpayable",
      "type": "function"
    },
    {
      "inputs": [
        {
          "internalType": "address",
          "name": "from",
          "type": "address"
        },
        {
          "internalType": "address",
          "name": "to",
          "type": "address"
        },
        {
          "internalType": "uint256",
          "name": "tokenId",
          "type": "uint256"
        }
      ],
      "name": "safeTransferFrom",
      "outputs": [],
      "stateMutability": "nonpayable",
      "type": "function"
    },
    {
      "inputs": [
        {
          "internalType": "address",
          "name": "from",
          "type": "address"
        },
        {
          "internalType": "address",
          "name": "to",
          "type": "address"
        },
        {
          "internalType": "uint256",
          "name": "tokenId",
          "type": "uint256"
        },
        {
          "internalType": "bytes",
          "name": "_data",
          "type": "bytes"
        }
      ],
      "name": "safeTransferFrom",
      "outputs": [],
      "stateMutability": "nonpayable",
      "type": "function"
    },
    {
      "inputs": [
        {
          "internalType": "address",
          "name": "operator",
          "type": "address"
        },
        {
          "internalType": "bool",
          "name": "approved",
          "type": "bool"
        }
      ],
      "name": "setApprovalForAll",
      "outputs": [],
      "stateMutability": "nonpayable",
      "type": "function"
    },
    {
      "inputs": [
        {
          "internalType": "address",
          "name": "_burner",
          "type": "address"
        }
      ],
      "name": "setBurner",
      "outputs": [],
      "stateMutability": "nonpayable",
      "type": "function"
    },
    {
      "inputs": [
        {
          "internalType": "address",
          "name": "_minter",
          "type": "address"
        }
      ],
      "name": "setMinter",
      "outputs": [],
      "stateMutability": "nonpayable",
      "type": "function"
    },
    {
      "inputs": [
        {
          "internalType": "bytes4",
          "name": "interfaceId",
          "type": "bytes4"
        }
      ],
      "name": "supportsInterface",
      "outputs": [
        {
          "internalType": "bool",
          "name": "",
          "type": "bool"
        }
      ],
      "stateMutability": "view",
      "type": "function"
    },
    {
      "inputs": [],
      "name": "symbol",
      "outputs": [
        {
          "internalType": "string",
          "name": "",
          "type": "string"
        }
      ],
      "stateMutability": "view",
      "type": "function"
    },
    {
      "inputs": [
        {
          "internalType": "uint256",
          "name": "",
          "type": "uint256"
        }
      ],
      "name": "tokenIdToCurrentPoints",
      "outputs": [
        {
          "internalType": "uint256",
          "name": "",
          "type": "uint256"
        }
      ],
      "stateMutability": "view",
      "type": "function"
    },
    {
      "inputs": [
        {
          "internalType": "uint256",
          "name": "",
          "type": "uint256"
        }
      ],
      "name": "tokenIdToTotalPoints",
      "outputs": [
        {
          "internalType": "uint256",
          "name": "",
          "type": "uint256"
        }
      ],
      "stateMutability": "view",
      "type": "function"
    },
    {
      "inputs": [
        {
          "internalType": "uint256",
          "name": "tokenId",
          "type": "uint256"
        }
      ],
      "name": "tokenURI",
      "outputs": [
        {
          "internalType": "string",
          "name": "",
          "type": "string"
        }
      ],
      "stateMutability": "view",
      "type": "function"
    },
    {
      "inputs": [
        {
          "internalType": "uint256",
          "name": "tokenId",
          "type": "uint256"
        }
      ],
      "name": "totalPoints",
      "outputs": [
        {
          "internalType": "uint256",
          "name": "",
          "type": "uint256"
        }
      ],
      "stateMutability": "view",
      "type": "function"
    },
    {
      "inputs": [
        {
          "internalType": "address",
          "name": "from",
          "type": "address"
        },
        {
          "internalType": "address",
          "name": "to",
          "type": "address"
        },
        {
          "internalType": "uint256",
          "name": "tokenId",
          "type": "uint256"
        }
      ],
      "name": "transferFrom",
      "outputs": [],
      "stateMutability": "nonpayable",
      "type": "function"
    },
    {
      "inputs": [
        {
          "internalType": "address",
          "name": "newOwner",
          "type": "address"
        }
      ],
      "name": "transferOwnership",
      "outputs": [],
      "stateMutability": "nonpayable",
      "type": "function"
    }
  ],
  "transactionHash": "0x05fac35fcd254048bd53dba427e321119477f7b7b7cad03e85dd43ee92371ff0",
  "args": [
    "ImpossibleLoyaltyCard",
    "ILC"
  ],
  "numDeployments": 1,
  "solcInputHash": "0c2ea070076f938f781ff9ef64fd3e9a",
  "bytecode": "0x60806040523480156200001157600080fd5b506040516200410738038062004107833981810160405281019062000037919062000285565b818181600090805190602001906200005192919062000163565b5080600190805190602001906200006a92919062000163565b5050506200008d620000816200009560201b60201c565b6200009d60201b60201c565b505062000468565b600033905090565b6000600660009054906101000a900473ffffffffffffffffffffffffffffffffffffffff16905081600660006101000a81548173ffffffffffffffffffffffffffffffffffffffff021916908373ffffffffffffffffffffffffffffffffffffffff1602179055508173ffffffffffffffffffffffffffffffffffffffff168173ffffffffffffffffffffffffffffffffffffffff167f8be0079c531659141344cd1fd0a4f28419497f9722a3daafe3b4186f6b6457e060405160405180910390a35050565b82805462000171906200038d565b90600052602060002090601f016020900481019282620001955760008555620001e1565b82601f10620001b057805160ff1916838001178555620001e1565b82800160010185558215620001e1579182015b82811115620001e0578251825591602001919060010190620001c3565b5b509050620001f09190620001f4565b5090565b5b808211156200020f576000816000905550600101620001f5565b5090565b60006200022a620002248462000321565b620002f8565b9050828152602081018484840111156200024357600080fd5b6200025084828562000357565b509392505050565b600082601f8301126200026a57600080fd5b81516200027c84826020860162000213565b91505092915050565b600080604083850312156200029957600080fd5b600083015167ffffffffffffffff811115620002b457600080fd5b620002c28582860162000258565b925050602083015167ffffffffffffffff811115620002e057600080fd5b620002ee8582860162000258565b9150509250929050565b60006200030462000317565b9050620003128282620003c3565b919050565b6000604051905090565b600067ffffffffffffffff8211156200033f576200033e62000428565b5b6200034a8262000457565b9050602081019050919050565b60005b83811015620003775780820151818401526020810190506200035a565b8381111562000387576000848401525b50505050565b60006002820490506001821680620003a657607f821691505b60208210811415620003bd57620003bc620003f9565b5b50919050565b620003ce8262000457565b810181811067ffffffffffffffff82111715620003f057620003ef62000428565b5b80604052505050565b7f4e487b7100000000000000000000000000000000000000000000000000000000600052602260045260246000fd5b7f4e487b7100000000000000000000000000000000000000000000000000000000600052604160045260246000fd5b6000601f19601f8301169050919050565b613c8f80620004786000396000f3fe608060405234801561001057600080fd5b506004361061021c5760003560e01c80636a62784211610125578063aaaae342116100ad578063c87b56dd1161007c578063c87b56dd14610649578063e985e9c514610679578063f2fde38b146106a9578063fca3b5aa146106c5578063fe4651a0146106e15761021c565b8063aaaae342146105c5578063ac8a584a146105f5578063b88d4fde14610611578063c2e704311461062d5761021c565b80638da5cb5b116100f45780638da5cb5b1461053557806395d89b41146105535780639870d7fe14610571578063a22cb4651461058d578063a996d6ce146105a95761021c565b80636a627842146104af5780636d70f7ae146104cb57806370a08231146104fb578063715018a61461052b5761021c565b80633179b014116101a85780634c99007d116101775780634c99007d146103f9578063556b4fe4146104175780635cadd08d146104475780636352211e14610463578063678f3ef3146104935761021c565b80633179b0141461037357806342842e0e146103a357806342966c68146103bf57806346aa52ce146103db5761021c565b8063095ea7b3116101ef578063095ea7b3146102bd57806323b872dd146102d957806327810b6e146102f55780632d8438be14610313578063313a249b146103435761021c565b806301ffc9a71461022157806306fdde0314610251578063075461721461026f578063081812fc1461028d575b600080fd5b61023b60048036038101906102369190612d20565b6106fd565b6040516102489190613162565b60405180910390f35b6102596107df565b604051610266919061317d565b60405180910390f35b610277610871565b60405161028491906130fb565b60405180910390f35b6102a760048036038101906102a29190612d72565b610897565b6040516102b491906130fb565b60405180910390f35b6102d760048036038101906102d29190612ce4565b61091c565b005b6102f360048036038101906102ee9190612bde565b610a34565b005b6102fd610a94565b60405161030a91906130fb565b60405180910390f35b61032d60048036038101906103289190612d72565b610aba565b60405161033a919061339f565b60405180910390f35b61035d60048036038101906103589190612d72565b610b18565b60405161036a919061339f565b60405180910390f35b61038d60048036038101906103889190612d72565b610b76565b60405161039a919061339f565b60405180910390f35b6103bd60048036038101906103b89190612bde565b610b8e565b005b6103d960048036038101906103d49190612d72565b610bae565b005b6103e3610d4b565b6040516103f0919061339f565b60405180910390f35b610401610d51565b60405161040e919061339f565b60405180910390f35b610431600480360381019061042c9190612d72565b610d57565b60405161043e919061339f565b60405180910390f35b610461600480360381019061045c9190612b79565b610d6f565b005b61047d60048036038101906104789190612d72565b610e7d565b60405161048a91906130fb565b60405180910390f35b6104ad60048036038101906104a89190612b79565b610f2f565b005b6104c960048036038101906104c49190612b79565b61103d565b005b6104e560048036038101906104e09190612b79565b6110ed565b6040516104f29190613162565b60405180910390f35b61051560048036038101906105109190612b79565b611143565b604051610522919061339f565b60405180910390f35b6105336111fb565b005b61053d611283565b60405161054a91906130fb565b60405180910390f35b61055b6112ad565b604051610568919061317d565b60405180910390f35b61058b60048036038101906105869190612b79565b61133f565b005b6105a760048036038101906105a29190612ca8565b61144d565b005b6105c360048036038101906105be9190612b79565b611463565b005b6105df60048036038101906105da9190612b79565b611523565b6040516105ec9190613162565b60405180910390f35b61060f600480360381019061060a9190612b79565b611579565b005b61062b60048036038101906106269190612c2d565b611687565b005b61064760048036038101906106429190612d9b565b6116e9565b005b610663600480360381019061065e9190612d72565b611822565b604051610670919061317d565b60405180910390f35b610693600480360381019061068e9190612ba2565b6118c9565b6040516106a09190613162565b60405180910390f35b6106c360048036038101906106be9190612b79565b61195d565b005b6106df60048036038101906106da9190612b79565b611a55565b005b6106fb60048036038101906106f69190612d9b565b611b15565b005b60007f80ac58cd000000000000000000000000000000000000000000000000000000007bffffffffffffffffffffffffffffffffffffffffffffffffffffffff1916827bffffffffffffffffffffffffffffffffffffffffffffffffffffffff191614806107c857507f5b5e139f000000000000000000000000000000000000000000000000000000007bffffffffffffffffffffffffffffffffffffffffffffffffffffffff1916827bffffffffffffffffffffffffffffffffffffffffffffffffffffffff1916145b806107d857506107d782611c2b565b5b9050919050565b6060600080546107ee906135fb565b80601f016020809104026020016040519081016040528092919081815260200182805461081a906135fb565b80156108675780601f1061083c57610100808354040283529160200191610867565b820191906000526020600020905b81548152906001019060200180831161084a57829003601f168201915b5050505050905090565b600760009054906101000a900473ffffffffffffffffffffffffffffffffffffffff1681565b60006108a282611c95565b6108e1576040517f08c379a00000000000000000000000000000000000000000000000000000000081526004016108d8906132ff565b60405180910390fd5b6004600083815260200190815260200160002060009054906101000a900473ffffffffffffffffffffffffffffffffffffffff169050919050565b600061092782610e7d565b90508073ffffffffffffffffffffffffffffffffffffffff168373ffffffffffffffffffffffffffffffffffffffff161415610998576040517f08c379a000000000000000000000000000000000000000000000000000000000815260040161098f9061335f565b60405180910390fd5b8073ffffffffffffffffffffffffffffffffffffffff166109b7611d01565b73ffffffffffffffffffffffffffffffffffffffff1614806109e657506109e5816109e0611d01565b6118c9565b5b610a25576040517f08c379a0000000000000000000000000000000000000000000000000000000008152600401610a1c9061327f565b60405180910390fd5b610a2f8383611d09565b505050565b610a45610a3f611d01565b82611dc2565b610a84576040517f08c379a0000000000000000000000000000000000000000000000000000000008152600401610a7b9061337f565b60405180910390fd5b610a8f838383611ea0565b505050565b600860009054906101000a900473ffffffffffffffffffffffffffffffffffffffff1681565b600081610ac681611c95565b610afc576040517feb7d192800000000000000000000000000000000000000000000000000000000815260040160405180910390fd5b600c600084815260200190815260200160002054915050919050565b600081610b2481611c95565b610b5a576040517feb7d192800000000000000000000000000000000000000000000000000000000815260040160405180910390fd5b600b600084815260200190815260200160002054915050919050565b600b6020528060005260406000206000915090505481565b610ba983838360405180602001604052806000815250611687565b505050565b80610bb881611c95565b610bee576040517feb7d192800000000000000000000000000000000000000000000000000000000815260040160405180910390fd5b6000610bf8611d01565b90506000610c0584610e7d565b905060008173ffffffffffffffffffffffffffffffffffffffff168373ffffffffffffffffffffffffffffffffffffffff161490506000610c4683856118c9565b80610c8457508373ffffffffffffffffffffffffffffffffffffffff16610c6c87610897565b73ffffffffffffffffffffffffffffffffffffffff16145b8015610cdd5750600860009054906101000a900473ffffffffffffffffffffffffffffffffffffffff1673ffffffffffffffffffffffffffffffffffffffff168473ffffffffffffffffffffffffffffffffffffffff16145b905081158015610ceb575080155b15610d22576040517f225e797800000000000000000000000000000000000000000000000000000000815260040160405180910390fd5b600a6000815480929190610d359061365e565b9190505550610d4386611f33565b505050505050565b60095481565b600a5481565b600c6020528060005260406000206000915090505481565b610d77611d01565b73ffffffffffffffffffffffffffffffffffffffff16610d95611283565b73ffffffffffffffffffffffffffffffffffffffff1614610deb576040517f08c379a0000000000000000000000000000000000000000000000000000000008152600401610de29061331f565b60405180910390fd5b6000600e60008373ffffffffffffffffffffffffffffffffffffffff1673ffffffffffffffffffffffffffffffffffffffff16815260200190815260200160002060006101000a81548160ff0219169083151502179055507f663f404be5047ece6f118c397a4f9037ff42dbf94c7e167405ce9de387438d3581604051610e7291906130fb565b60405180910390a150565b6000806002600084815260200190815260200160002060009054906101000a900473ffffffffffffffffffffffffffffffffffffffff169050600073ffffffffffffffffffffffffffffffffffffffff168173ffffffffffffffffffffffffffffffffffffffff161415610f26576040517f08c379a0000000000000000000000000000000000000000000000000000000008152600401610f1d906132bf565b60405180910390fd5b80915050919050565b610f37611d01565b73ffffffffffffffffffffffffffffffffffffffff16610f55611283565b73ffffffffffffffffffffffffffffffffffffffff1614610fab576040517f08c379a0000000000000000000000000000000000000000000000000000000008152600401610fa29061331f565b60405180910390fd5b6001600e60008373ffffffffffffffffffffffffffffffffffffffff1673ffffffffffffffffffffffffffffffffffffffff16815260200190815260200160002060006101000a81548160ff0219169083151502179055507f07c8a698fbf170bbcfa6af16adaad210e21cf234760d7431be6a8bc76146706b8160405161103291906130fb565b60405180910390a150565b600760009054906101000a900473ffffffffffffffffffffffffffffffffffffffff1673ffffffffffffffffffffffffffffffffffffffff163373ffffffffffffffffffffffffffffffffffffffff16146110c4576040517fbc88519700000000000000000000000000000000000000000000000000000000815260040160405180910390fd5b6000600960008154809291906110d99061365e565b9190505590506110e98282612050565b5050565b6000600d60008373ffffffffffffffffffffffffffffffffffffffff1673ffffffffffffffffffffffffffffffffffffffff16815260200190815260200160002060009054906101000a900460ff169050919050565b60008073ffffffffffffffffffffffffffffffffffffffff168273ffffffffffffffffffffffffffffffffffffffff1614156111b4576040517f08c379a00000000000000000000000000000000000000000000000000000000081526004016111ab9061329f565b60405180910390fd5b600360008373ffffffffffffffffffffffffffffffffffffffff1673ffffffffffffffffffffffffffffffffffffffff168152602001908152602001600020549050919050565b611203611d01565b73ffffffffffffffffffffffffffffffffffffffff16611221611283565b73ffffffffffffffffffffffffffffffffffffffff1614611277576040517f08c379a000000000000000000000000000000000000000000000000000000000815260040161126e9061331f565b60405180910390fd5b611281600061222a565b565b6000600660009054906101000a900473ffffffffffffffffffffffffffffffffffffffff16905090565b6060600180546112bc906135fb565b80601f01602080910402602001604051908101604052809291908181526020018280546112e8906135fb565b80156113355780601f1061130a57610100808354040283529160200191611335565b820191906000526020600020905b81548152906001019060200180831161131857829003601f168201915b5050505050905090565b611347611d01565b73ffffffffffffffffffffffffffffffffffffffff16611365611283565b73ffffffffffffffffffffffffffffffffffffffff16146113bb576040517f08c379a00000000000000000000000000000000000000000000000000000000081526004016113b29061331f565b60405180910390fd5b6001600d60008373ffffffffffffffffffffffffffffffffffffffff1673ffffffffffffffffffffffffffffffffffffffff16815260200190815260200160002060006101000a81548160ff0219169083151502179055507f62cb02f3de5017db2b7d0bffac1845be0b5034dc8dbde6e56dd561e2b22446c28160405161144291906130fb565b60405180910390a150565b61145f611458611d01565b83836122f0565b5050565b61146b611d01565b73ffffffffffffffffffffffffffffffffffffffff16611489611283565b73ffffffffffffffffffffffffffffffffffffffff16146114df576040517f08c379a00000000000000000000000000000000000000000000000000000000081526004016114d69061331f565b60405180910390fd5b80600860006101000a81548173ffffffffffffffffffffffffffffffffffffffff021916908373ffffffffffffffffffffffffffffffffffffffff16021790555050565b6000600e60008373ffffffffffffffffffffffffffffffffffffffff1673ffffffffffffffffffffffffffffffffffffffff16815260200190815260200160002060009054906101000a900460ff169050919050565b611581611d01565b73ffffffffffffffffffffffffffffffffffffffff1661159f611283565b73ffffffffffffffffffffffffffffffffffffffff16146115f5576040517f08c379a00000000000000000000000000000000000000000000000000000000081526004016115ec9061331f565b60405180910390fd5b6000600d60008373ffffffffffffffffffffffffffffffffffffffff1673ffffffffffffffffffffffffffffffffffffffff16815260200190815260200160002060006101000a81548160ff0219169083151502179055507fe522b87acd91c0ddd687ad5a469acffe69b08b5809ed528b823949a291e518168160405161167c91906130fb565b60405180910390a150565b611698611692611d01565b83611dc2565b6116d7576040517f08c379a00000000000000000000000000000000000000000000000000000000081526004016116ce9061337f565b60405180910390fd5b6116e38484848461245d565b50505050565b600d60003373ffffffffffffffffffffffffffffffffffffffff1673ffffffffffffffffffffffffffffffffffffffff16815260200190815260200160002060009054906101000a900460ff1661176c576040517f39bf4e9d00000000000000000000000000000000000000000000000000000000815260040160405180910390fd5b600c6000838152602001908152602001600020548111156117b9576040517f303e7a0700000000000000000000000000000000000000000000000000000000815260040160405180910390fd5b80600c600084815260200190815260200160002060008282546117dc9190613511565b925050819055507f14a437403de329e11f33a93a218366a8d39ddc065cd51bb25f818a1d2c4771d3828233604051611816939291906133ba565b60405180910390a15050565b606061182d82611c95565b61186c576040517f08c379a00000000000000000000000000000000000000000000000000000000081526004016118639061333f565b60405180910390fd5b60006118766124b9565b9050600081511161189657604051806020016040528060008152506118c1565b806118a0846124d0565b6040516020016118b19291906130d7565b6040516020818303038152906040525b915050919050565b6000600560008473ffffffffffffffffffffffffffffffffffffffff1673ffffffffffffffffffffffffffffffffffffffff16815260200190815260200160002060008373ffffffffffffffffffffffffffffffffffffffff1673ffffffffffffffffffffffffffffffffffffffff16815260200190815260200160002060009054906101000a900460ff16905092915050565b611965611d01565b73ffffffffffffffffffffffffffffffffffffffff16611983611283565b73ffffffffffffffffffffffffffffffffffffffff16146119d9576040517f08c379a00000000000000000000000000000000000000000000000000000000081526004016119d09061331f565b60405180910390fd5b600073ffffffffffffffffffffffffffffffffffffffff168173ffffffffffffffffffffffffffffffffffffffff161415611a49576040517f08c379a0000000000000000000000000000000000000000000000000000000008152600401611a40906131bf565b60405180910390fd5b611a528161222a565b50565b611a5d611d01565b73ffffffffffffffffffffffffffffffffffffffff16611a7b611283565b73ffffffffffffffffffffffffffffffffffffffff1614611ad1576040517f08c379a0000000000000000000000000000000000000000000000000000000008152600401611ac89061331f565b60405180910390fd5b80600760006101000a81548173ffffffffffffffffffffffffffffffffffffffff021916908373ffffffffffffffffffffffffffffffffffffffff16021790555050565b600d60003373ffffffffffffffffffffffffffffffffffffffff1673ffffffffffffffffffffffffffffffffffffffff16815260200190815260200160002060009054906101000a900460ff16611b98576040517f39bf4e9d00000000000000000000000000000000000000000000000000000000815260040160405180910390fd5b80600b60008481526020019081526020016000206000828254611bbb919061348a565b9250508190555080600c60008481526020019081526020016000206000828254611be5919061348a565b925050819055507f9e8f52ba7dfc7490889d2eced44a8a6639f623f09bf5a8ebb599a984cf0ae2cf828233604051611c1f939291906133ba565b60405180910390a15050565b60007f01ffc9a7000000000000000000000000000000000000000000000000000000007bffffffffffffffffffffffffffffffffffffffffffffffffffffffff1916827bffffffffffffffffffffffffffffffffffffffffffffffffffffffff1916149050919050565b60008073ffffffffffffffffffffffffffffffffffffffff166002600084815260200190815260200160002060009054906101000a900473ffffffffffffffffffffffffffffffffffffffff1673ffffffffffffffffffffffffffffffffffffffff1614159050919050565b600033905090565b816004600083815260200190815260200160002060006101000a81548173ffffffffffffffffffffffffffffffffffffffff021916908373ffffffffffffffffffffffffffffffffffffffff160217905550808273ffffffffffffffffffffffffffffffffffffffff16611d7c83610e7d565b73ffffffffffffffffffffffffffffffffffffffff167f8c5be1e5ebec7d5bd14f71427d1e84f3dd0314c0f7b2291e5b200ac8c7c3b92560405160405180910390a45050565b6000611dcd82611c95565b611e0c576040517f08c379a0000000000000000000000000000000000000000000000000000000008152600401611e039061325f565b60405180910390fd5b6000611e1783610e7d565b90508073ffffffffffffffffffffffffffffffffffffffff168473ffffffffffffffffffffffffffffffffffffffff161480611e595750611e5881856118c9565b5b80611e9757508373ffffffffffffffffffffffffffffffffffffffff16611e7f84610897565b73ffffffffffffffffffffffffffffffffffffffff16145b91505092915050565b600e60008373ffffffffffffffffffffffffffffffffffffffff1673ffffffffffffffffffffffffffffffffffffffff16815260200190815260200160002060009054906101000a900460ff16611f23576040517fbab098d200000000000000000000000000000000000000000000000000000000815260040160405180910390fd5b611f2e83838361267d565b505050565b6000611f3e82610e7d565b9050611f4c816000846128e4565b611f57600083611d09565b6001600360008373ffffffffffffffffffffffffffffffffffffffff1673ffffffffffffffffffffffffffffffffffffffff1681526020019081526020016000206000828254611fa79190613511565b925050819055506002600083815260200190815260200160002060006101000a81549073ffffffffffffffffffffffffffffffffffffffff021916905581600073ffffffffffffffffffffffffffffffffffffffff168273ffffffffffffffffffffffffffffffffffffffff167fddf252ad1be2c89b69c2b068fc378daa952ba7f163c4a11628f55a4df523b3ef60405160405180910390a461204c816000846128e9565b5050565b600073ffffffffffffffffffffffffffffffffffffffff168273ffffffffffffffffffffffffffffffffffffffff1614156120c0576040517f08c379a00000000000000000000000000000000000000000000000000000000081526004016120b7906132df565b60405180910390fd5b6120c981611c95565b15612109576040517f08c379a0000000000000000000000000000000000000000000000000000000008152600401612100906131ff565b60405180910390fd5b612115600083836128e4565b6001600360008473ffffffffffffffffffffffffffffffffffffffff1673ffffffffffffffffffffffffffffffffffffffff1681526020019081526020016000206000828254612165919061348a565b92505081905550816002600083815260200190815260200160002060006101000a81548173ffffffffffffffffffffffffffffffffffffffff021916908373ffffffffffffffffffffffffffffffffffffffff160217905550808273ffffffffffffffffffffffffffffffffffffffff16600073ffffffffffffffffffffffffffffffffffffffff167fddf252ad1be2c89b69c2b068fc378daa952ba7f163c4a11628f55a4df523b3ef60405160405180910390a4612226600083836128e9565b5050565b6000600660009054906101000a900473ffffffffffffffffffffffffffffffffffffffff16905081600660006101000a81548173ffffffffffffffffffffffffffffffffffffffff021916908373ffffffffffffffffffffffffffffffffffffffff1602179055508173ffffffffffffffffffffffffffffffffffffffff168173ffffffffffffffffffffffffffffffffffffffff167f8be0079c531659141344cd1fd0a4f28419497f9722a3daafe3b4186f6b6457e060405160405180910390a35050565b8173ffffffffffffffffffffffffffffffffffffffff168373ffffffffffffffffffffffffffffffffffffffff16141561235f576040517f08c379a00000000000000000000000000000000000000000000000000000000081526004016123569061323f565b60405180910390fd5b80600560008573ffffffffffffffffffffffffffffffffffffffff1673ffffffffffffffffffffffffffffffffffffffff16815260200190815260200160002060008473ffffffffffffffffffffffffffffffffffffffff1673ffffffffffffffffffffffffffffffffffffffff16815260200190815260200160002060006101000a81548160ff0219169083151502179055508173ffffffffffffffffffffffffffffffffffffffff168373ffffffffffffffffffffffffffffffffffffffff167f17307eab39ab6107e8899845ad3d59bd9653f200f220920489ca2b5937696c31836040516124509190613162565b60405180910390a3505050565b612468848484611ea0565b612474848484846128ee565b6124b3576040517f08c379a00000000000000000000000000000000000000000000000000000000081526004016124aa9061319f565b60405180910390fd5b50505050565b606060405180602001604052806000815250905090565b60606000821415612518576040518060400160405280600181526020017f30000000000000000000000000000000000000000000000000000000000000008152509050612678565b600082905060005b6000821461254a5780806125339061365e565b915050600a8261254391906134e0565b9150612520565b60008167ffffffffffffffff81111561258c577f4e487b7100000000000000000000000000000000000000000000000000000000600052604160045260246000fd5b6040519080825280601f01601f1916602001820160405280156125be5781602001600182028036833780820191505090505b5090505b60008514612671576001826125d79190613511565b9150600a856125e691906136a7565b60306125f2919061348a565b60f81b81838151811061262e577f4e487b7100000000000000000000000000000000000000000000000000000000600052603260045260246000fd5b60200101907effffffffffffffffffffffffffffffffffffffffffffffffffffffffffffff1916908160001a905350600a8561266a91906134e0565b94506125c2565b8093505050505b919050565b8273ffffffffffffffffffffffffffffffffffffffff1661269d82610e7d565b73ffffffffffffffffffffffffffffffffffffffff16146126f3576040517f08c379a00000000000000000000000000000000000000000000000000000000081526004016126ea906131df565b60405180910390fd5b600073ffffffffffffffffffffffffffffffffffffffff168273ffffffffffffffffffffffffffffffffffffffff161415612763576040517f08c379a000000000000000000000000000000000000000000000000000000000815260040161275a9061321f565b60405180910390fd5b61276e8383836128e4565b612779600082611d09565b6001600360008573ffffffffffffffffffffffffffffffffffffffff1673ffffffffffffffffffffffffffffffffffffffff16815260200190815260200160002060008282546127c99190613511565b925050819055506001600360008473ffffffffffffffffffffffffffffffffffffffff1673ffffffffffffffffffffffffffffffffffffffff1681526020019081526020016000206000828254612820919061348a565b92505081905550816002600083815260200190815260200160002060006101000a81548173ffffffffffffffffffffffffffffffffffffffff021916908373ffffffffffffffffffffffffffffffffffffffff160217905550808273ffffffffffffffffffffffffffffffffffffffff168473ffffffffffffffffffffffffffffffffffffffff167fddf252ad1be2c89b69c2b068fc378daa952ba7f163c4a11628f55a4df523b3ef60405160405180910390a46128df8383836128e9565b505050565b505050565b505050565b600061290f8473ffffffffffffffffffffffffffffffffffffffff16612a85565b15612a78578373ffffffffffffffffffffffffffffffffffffffff1663150b7a02612938611d01565b8786866040518563ffffffff1660e01b815260040161295a9493929190613116565b602060405180830381600087803b15801561297457600080fd5b505af19250505080156129a557506040513d601f19601f820116820180604052508101906129a29190612d49565b60015b612a28573d80600081146129d5576040519150601f19603f3d011682016040523d82523d6000602084013e6129da565b606091505b50600081511415612a20576040517f08c379a0000000000000000000000000000000000000000000000000000000008152600401612a179061319f565b60405180910390fd5b805181602001fd5b63150b7a0260e01b7bffffffffffffffffffffffffffffffffffffffffffffffffffffffff1916817bffffffffffffffffffffffffffffffffffffffffffffffffffffffff191614915050612a7d565b600190505b949350505050565b6000808273ffffffffffffffffffffffffffffffffffffffff163b119050919050565b6000612abb612ab684613416565b6133f1565b905082815260208101848484011115612ad357600080fd5b612ade8482856135b9565b509392505050565b600081359050612af581613bfd565b92915050565b600081359050612b0a81613c14565b92915050565b600081359050612b1f81613c2b565b92915050565b600081519050612b3481613c2b565b92915050565b600082601f830112612b4b57600080fd5b8135612b5b848260208601612aa8565b91505092915050565b600081359050612b7381613c42565b92915050565b600060208284031215612b8b57600080fd5b6000612b9984828501612ae6565b91505092915050565b60008060408385031215612bb557600080fd5b6000612bc385828601612ae6565b9250506020612bd485828601612ae6565b9150509250929050565b600080600060608486031215612bf357600080fd5b6000612c0186828701612ae6565b9350506020612c1286828701612ae6565b9250506040612c2386828701612b64565b9150509250925092565b60008060008060808587031215612c4357600080fd5b6000612c5187828801612ae6565b9450506020612c6287828801612ae6565b9350506040612c7387828801612b64565b925050606085013567ffffffffffffffff811115612c9057600080fd5b612c9c87828801612b3a565b91505092959194509250565b60008060408385031215612cbb57600080fd5b6000612cc985828601612ae6565b9250506020612cda85828601612afb565b9150509250929050565b60008060408385031215612cf757600080fd5b6000612d0585828601612ae6565b9250506020612d1685828601612b64565b9150509250929050565b600060208284031215612d3257600080fd5b6000612d4084828501612b10565b91505092915050565b600060208284031215612d5b57600080fd5b6000612d6984828501612b25565b91505092915050565b600060208284031215612d8457600080fd5b6000612d9284828501612b64565b91505092915050565b60008060408385031215612dae57600080fd5b6000612dbc85828601612b64565b9250506020612dcd85828601612b64565b9150509250929050565b612de081613545565b82525050565b612def81613557565b82525050565b6000612e0082613447565b612e0a818561345d565b9350612e1a8185602086016135c8565b612e2381613794565b840191505092915050565b6000612e3982613452565b612e43818561346e565b9350612e538185602086016135c8565b612e5c81613794565b840191505092915050565b6000612e7282613452565b612e7c818561347f565b9350612e8c8185602086016135c8565b80840191505092915050565b6000612ea560328361346e565b9150612eb0826137a5565b604082019050919050565b6000612ec860268361346e565b9150612ed3826137f4565b604082019050919050565b6000612eeb60258361346e565b9150612ef682613843565b604082019050919050565b6000612f0e601c8361346e565b9150612f1982613892565b602082019050919050565b6000612f3160248361346e565b9150612f3c826138bb565b604082019050919050565b6000612f5460198361346e565b9150612f5f8261390a565b602082019050919050565b6000612f77602c8361346e565b9150612f8282613933565b604082019050919050565b6000612f9a60388361346e565b9150612fa582613982565b604082019050919050565b6000612fbd602a8361346e565b9150612fc8826139d1565b604082019050919050565b6000612fe060298361346e565b9150612feb82613a20565b604082019050919050565b600061300360208361346e565b915061300e82613a6f565b602082019050919050565b6000613026602c8361346e565b915061303182613a98565b604082019050919050565b600061304960208361346e565b915061305482613ae7565b602082019050919050565b600061306c602f8361346e565b915061307782613b10565b604082019050919050565b600061308f60218361346e565b915061309a82613b5f565b604082019050919050565b60006130b260318361346e565b91506130bd82613bae565b604082019050919050565b6130d1816135af565b82525050565b60006130e38285612e67565b91506130ef8284612e67565b91508190509392505050565b60006020820190506131106000830184612dd7565b92915050565b600060808201905061312b6000830187612dd7565b6131386020830186612dd7565b61314560408301856130c8565b81810360608301526131578184612df5565b905095945050505050565b60006020820190506131776000830184612de6565b92915050565b600060208201905081810360008301526131978184612e2e565b905092915050565b600060208201905081810360008301526131b881612e98565b9050919050565b600060208201905081810360008301526131d881612ebb565b9050919050565b600060208201905081810360008301526131f881612ede565b9050919050565b6000602082019050818103600083015261321881612f01565b9050919050565b6000602082019050818103600083015261323881612f24565b9050919050565b6000602082019050818103600083015261325881612f47565b9050919050565b6000602082019050818103600083015261327881612f6a565b9050919050565b6000602082019050818103600083015261329881612f8d565b9050919050565b600060208201905081810360008301526132b881612fb0565b9050919050565b600060208201905081810360008301526132d881612fd3565b9050919050565b600060208201905081810360008301526132f881612ff6565b9050919050565b6000602082019050818103600083015261331881613019565b9050919050565b600060208201905081810360008301526133388161303c565b9050919050565b600060208201905081810360008301526133588161305f565b9050919050565b6000602082019050818103600083015261337881613082565b9050919050565b60006020820190508181036000830152613398816130a5565b9050919050565b60006020820190506133b460008301846130c8565b92915050565b60006060820190506133cf60008301866130c8565b6133dc60208301856130c8565b6133e96040830184612dd7565b949350505050565b60006133fb61340c565b9050613407828261362d565b919050565b6000604051905090565b600067ffffffffffffffff82111561343157613430613765565b5b61343a82613794565b9050602081019050919050565b600081519050919050565b600081519050919050565b600082825260208201905092915050565b600082825260208201905092915050565b600081905092915050565b6000613495826135af565b91506134a0836135af565b9250827fffffffffffffffffffffffffffffffffffffffffffffffffffffffffffffffff038211156134d5576134d46136d8565b5b828201905092915050565b60006134eb826135af565b91506134f6836135af565b92508261350657613505613707565b5b828204905092915050565b600061351c826135af565b9150613527836135af565b92508282101561353a576135396136d8565b5b828203905092915050565b60006135508261358f565b9050919050565b60008115159050919050565b60007fffffffff0000000000000000000000000000000000000000000000000000000082169050919050565b600073ffffffffffffffffffffffffffffffffffffffff82169050919050565b6000819050919050565b82818337600083830152505050565b60005b838110156135e65780820151818401526020810190506135cb565b838111156135f5576000848401525b50505050565b6000600282049050600182168061361357607f821691505b6020821081141561362757613626613736565b5b50919050565b61363682613794565b810181811067ffffffffffffffff8211171561365557613654613765565b5b80604052505050565b6000613669826135af565b91507fffffffffffffffffffffffffffffffffffffffffffffffffffffffffffffffff82141561369c5761369b6136d8565b5b600182019050919050565b60006136b2826135af565b91506136bd836135af565b9250826136cd576136cc613707565b5b828206905092915050565b7f4e487b7100000000000000000000000000000000000000000000000000000000600052601160045260246000fd5b7f4e487b7100000000000000000000000000000000000000000000000000000000600052601260045260246000fd5b7f4e487b7100000000000000000000000000000000000000000000000000000000600052602260045260246000fd5b7f4e487b7100000000000000000000000000000000000000000000000000000000600052604160045260246000fd5b6000601f19601f8301169050919050565b7f4552433732313a207472616e7366657220746f206e6f6e20455243373231526560008201527f63656976657220696d706c656d656e7465720000000000000000000000000000602082015250565b7f4f776e61626c653a206e6577206f776e657220697320746865207a65726f206160008201527f6464726573730000000000000000000000000000000000000000000000000000602082015250565b7f4552433732313a207472616e736665722066726f6d20696e636f72726563742060008201527f6f776e6572000000000000000000000000000000000000000000000000000000602082015250565b7f4552433732313a20746f6b656e20616c7265616479206d696e74656400000000600082015250565b7f4552433732313a207472616e7366657220746f20746865207a65726f2061646460008201527f7265737300000000000000000000000000000000000000000000000000000000602082015250565b7f4552433732313a20617070726f766520746f2063616c6c657200000000000000600082015250565b7f4552433732313a206f70657261746f7220717565727920666f72206e6f6e657860008201527f697374656e7420746f6b656e0000000000000000000000000000000000000000602082015250565b7f4552433732313a20617070726f76652063616c6c6572206973206e6f74206f7760008201527f6e6572206e6f7220617070726f76656420666f7220616c6c0000000000000000602082015250565b7f4552433732313a2062616c616e636520717565727920666f7220746865207a6560008201527f726f206164647265737300000000000000000000000000000000000000000000602082015250565b7f4552433732313a206f776e657220717565727920666f72206e6f6e657869737460008201527f656e7420746f6b656e0000000000000000000000000000000000000000000000602082015250565b7f4552433732313a206d696e7420746f20746865207a65726f2061646472657373600082015250565b7f4552433732313a20617070726f76656420717565727920666f72206e6f6e657860008201527f697374656e7420746f6b656e0000000000000000000000000000000000000000602082015250565b7f4f776e61626c653a2063616c6c6572206973206e6f7420746865206f776e6572600082015250565b7f4552433732314d657461646174613a2055524920717565727920666f72206e6f60008201527f6e6578697374656e7420746f6b656e0000000000000000000000000000000000602082015250565b7f4552433732313a20617070726f76616c20746f2063757272656e74206f776e6560008201527f7200000000000000000000000000000000000000000000000000000000000000602082015250565b7f4552433732313a207472616e736665722063616c6c6572206973206e6f74206f60008201527f776e6572206e6f7220617070726f766564000000000000000000000000000000602082015250565b613c0681613545565b8114613c1157600080fd5b50565b613c1d81613557565b8114613c2857600080fd5b50565b613c3481613563565b8114613c3f57600080fd5b50565b613c4b816135af565b8114613c5657600080fd5b5056fea2646970667358221220affbd2c1121c58ac1a576273f5c5591bbc2746d3f2591d680957560a348195f064736f6c63430008040033",
  "devdoc": {
    "author": "Impossible Finance",
    "kind": "dev",
    "methods": {
      "addPoints(uint256,uint256)": {
        "params": {
          "points": "Number of points to add",
          "tokenId": "The loyalty card to add points to"
        }
      },
      "approve(address,uint256)": {
        "details": "See {IERC721-approve}."
      },
      "balanceOf(address)": {
        "details": "See {IERC721-balanceOf}."
      },
      "burn(uint256)": {
        "details": "Following OZ's pattern: _burn() can only be called by the token owner or an approved party. Additionally, we say that the approved party must be our burner.",
        "params": {
          "tokenId": "The id of the token to be burned."
        }
      },
      "currentPoints(uint256)": {
        "params": {
          "tokenId": "The tokenId of the card"
        }
      },
      "getApproved(uint256)": {
        "details": "See {IERC721-getApproved}."
      },
      "isApprovedForAll(address,address)": {
        "details": "See {IERC721-isApprovedForAll}."
      },
      "isDestination(address)": {
        "params": {
          "dest": "Address to check"
        }
      },
      "isOperator(address)": {
        "params": {
          "op": "Address to check"
        }
      },
      "mint(address)": {
        "params": {
          "to": "The account to mint to"
        }
      },
      "name()": {
        "details": "See {IERC721Metadata-name}."
      },
      "owner()": {
        "details": "Returns the address of the current owner."
      },
      "ownerOf(uint256)": {
        "details": "See {IERC721-ownerOf}."
      },
      "redeemPoints(uint256,uint256)": {
        "params": {
          "points": "Number of points to redeem",
          "tokenId": "The loyalty card to redeem points from"
        }
      },
      "renounceOwnership()": {
        "details": "Leaves the contract without owner. It will not be possible to call `onlyOwner` functions anymore. Can only be called by the current owner. NOTE: Renouncing ownership will leave the contract without an owner, thereby removing any functionality that is only available to the owner."
      },
      "safeTransferFrom(address,address,uint256)": {
        "details": "See {IERC721-safeTransferFrom}."
      },
      "safeTransferFrom(address,address,uint256,bytes)": {
        "details": "See {IERC721-safeTransferFrom}."
      },
      "setApprovalForAll(address,bool)": {
        "details": "See {IERC721-setApprovalForAll}."
      },
      "supportsInterface(bytes4)": {
        "details": "See {IERC165-supportsInterface}."
      },
      "symbol()": {
        "details": "See {IERC721Metadata-symbol}."
      },
      "tokenURI(uint256)": {
        "details": "See {IERC721Metadata-tokenURI}."
      },
      "totalPoints(uint256)": {
        "params": {
          "tokenId": "The tokenId of the card"
        }
      },
      "transferFrom(address,address,uint256)": {
        "details": "See {IERC721-transferFrom}."
      },
      "transferOwnership(address)": {
        "details": "Transfers ownership of the contract to a new account (`newOwner`). Can only be called by the current owner."
      }
    },
    "title": "Loyalty Points Cards NFTs for Impossible Finance users.",
    "version": 1
  },
  "userdoc": {
    "kind": "user",
    "methods": {
      "addDestination(address)": {
        "notice": "Adds a destination to the whitelisted destinations"
      },
      "addOperator(address)": {
        "notice": "Adds an operator to the whitelisted operators"
      },
      "addPoints(uint256,uint256)": {
        "notice": "Add loyalty points to a given card"
      },
      "burn(uint256)": {
        "notice": "Burns a token with given tokenId"
      },
      "currentPoints(uint256)": {
        "notice": "Retrieve current number of points this card has"
      },
      "isDestination(address)": {
        "notice": "Returns whether given address may be receiver of tokens via transfer"
      },
      "isOperator(address)": {
        "notice": "Returns whether given address may operate"
      },
      "mint(address)": {
        "notice": "Mint a new card to given account"
      },
      "redeemPoints(uint256,uint256)": {
        "notice": "Redeem loyalty points from a card"
      },
      "removeDestination(address)": {
        "notice": "Removes a destination from the whitelisted destinations"
      },
      "removeOperator(address)": {
        "notice": "Removes an operator from the whitelisted operators"
      },
      "totalPoints(uint256)": {
        "notice": "Retrieve total number of points this card has accumulated historically"
      }
    },
    "notice": "Minting only allowed for specific minterThe cards are not transferrable except for whitelisted destinations.The cards can be burned.The cards acccumulate points which can be redeemed. Only whitelisted operators are allowed to do so.This contract has no knowledge of particular benefits.Benefits for redeeming loyalty points are handled entirely by operating contracts.Benefits operators have to ensure that, when redeeming, they deduct correct point amounts and give the benefits accordingly.",
    "version": 1
  },
  "storageLayout": {
    "storage": [
      {
        "astId": 130,
        "contract": "contracts/LoyaltyCard.sol:LoyaltyCard",
        "label": "_name",
        "offset": 0,
        "slot": "0",
        "type": "t_string_storage"
      },
      {
        "astId": 132,
        "contract": "contracts/LoyaltyCard.sol:LoyaltyCard",
        "label": "_symbol",
        "offset": 0,
        "slot": "1",
        "type": "t_string_storage"
      },
      {
        "astId": 136,
        "contract": "contracts/LoyaltyCard.sol:LoyaltyCard",
        "label": "_owners",
        "offset": 0,
        "slot": "2",
        "type": "t_mapping(t_uint256,t_address)"
      },
      {
        "astId": 140,
        "contract": "contracts/LoyaltyCard.sol:LoyaltyCard",
        "label": "_balances",
        "offset": 0,
        "slot": "3",
        "type": "t_mapping(t_address,t_uint256)"
      },
      {
        "astId": 144,
        "contract": "contracts/LoyaltyCard.sol:LoyaltyCard",
        "label": "_tokenApprovals",
        "offset": 0,
        "slot": "4",
        "type": "t_mapping(t_uint256,t_address)"
      },
      {
        "astId": 150,
        "contract": "contracts/LoyaltyCard.sol:LoyaltyCard",
        "label": "_operatorApprovals",
        "offset": 0,
        "slot": "5",
        "type": "t_mapping(t_address,t_mapping(t_address,t_bool))"
      },
      {
        "astId": 7,
        "contract": "contracts/LoyaltyCard.sol:LoyaltyCard",
        "label": "_owner",
        "offset": 0,
        "slot": "6",
        "type": "t_address"
      },
      {
        "astId": 1776,
        "contract": "contracts/LoyaltyCard.sol:LoyaltyCard",
        "label": "minter",
        "offset": 0,
        "slot": "7",
        "type": "t_address"
      },
      {
        "astId": 1778,
        "contract": "contracts/LoyaltyCard.sol:LoyaltyCard",
        "label": "burner",
        "offset": 0,
        "slot": "8",
        "type": "t_address"
      },
      {
        "astId": 1780,
        "contract": "contracts/LoyaltyCard.sol:LoyaltyCard",
        "label": "mintCounter",
        "offset": 0,
        "slot": "9",
        "type": "t_uint256"
      },
      {
        "astId": 1782,
        "contract": "contracts/LoyaltyCard.sol:LoyaltyCard",
        "label": "burnCounter",
        "offset": 0,
        "slot": "10",
        "type": "t_uint256"
      },
      {
        "astId": 1818,
        "contract": "contracts/LoyaltyCard.sol:LoyaltyCard",
        "label": "tokenIdToTotalPoints",
        "offset": 0,
        "slot": "11",
        "type": "t_mapping(t_uint256,t_uint256)"
      },
      {
        "astId": 1822,
        "contract": "contracts/LoyaltyCard.sol:LoyaltyCard",
        "label": "tokenIdToCurrentPoints",
        "offset": 0,
        "slot": "12",
        "type": "t_mapping(t_uint256,t_uint256)"
      },
      {
        "astId": 1844,
        "contract": "contracts/LoyaltyCard.sol:LoyaltyCard",
        "label": "whitelistedOperator",
        "offset": 0,
        "slot": "13",
        "type": "t_mapping(t_address,t_bool)"
      },
      {
        "astId": 1875,
        "contract": "contracts/LoyaltyCard.sol:LoyaltyCard",
        "label": "whitelistedDestination",
        "offset": 0,
        "slot": "14",
        "type": "t_mapping(t_address,t_bool)"
      }
    ],
    "types": {
      "t_address": {
        "encoding": "inplace",
        "label": "address",
        "numberOfBytes": "20"
      },
      "t_bool": {
        "encoding": "inplace",
        "label": "bool",
        "numberOfBytes": "1"
      },
      "t_mapping(t_address,t_bool)": {
        "encoding": "mapping",
        "key": "t_address",
        "label": "mapping(address => bool)",
        "numberOfBytes": "32",
        "value": "t_bool"
      },
      "t_mapping(t_address,t_mapping(t_address,t_bool))": {
        "encoding": "mapping",
        "key": "t_address",
        "label": "mapping(address => mapping(address => bool))",
        "numberOfBytes": "32",
        "value": "t_mapping(t_address,t_bool)"
      },
      "t_mapping(t_address,t_uint256)": {
        "encoding": "mapping",
        "key": "t_address",
        "label": "mapping(address => uint256)",
        "numberOfBytes": "32",
        "value": "t_uint256"
      },
      "t_mapping(t_uint256,t_address)": {
        "encoding": "mapping",
        "key": "t_uint256",
        "label": "mapping(uint256 => address)",
        "numberOfBytes": "32",
        "value": "t_address"
      },
      "t_mapping(t_uint256,t_uint256)": {
        "encoding": "mapping",
        "key": "t_uint256",
        "label": "mapping(uint256 => uint256)",
        "numberOfBytes": "32",
        "value": "t_uint256"
      },
      "t_string_storage": {
        "encoding": "bytes",
        "label": "string",
        "numberOfBytes": "32"
      },
      "t_uint256": {
        "encoding": "inplace",
        "label": "uint256",
        "numberOfBytes": "32"
      }
    }
  }
}