{
  "address": "0xbDB4886905435F9031E6FbE4E1aDB920Ff1C4A22",
  "abi": [
    {
      "inputs": [
        {
          "internalType": "address",
          "name": "loyaltyCardMasterAddress",
          "type": "address"
        }
      ],
      "stateMutability": "nonpayable",
      "type": "constructor"
    },
    {
      "anonymous": false,
      "inputs": [
        {
          "indexed": true,
          "internalType": "address",
          "name": "previousOwner",
          "type": "address"
        },
        {
          "indexed": true,
          "internalType": "address",
          "name": "newOwner",
          "type": "address"
        }
      ],
      "name": "OwnershipTransferred",
      "type": "event"
    },
    {
      "inputs": [
        {
          "internalType": "uint256",
          "name": "tokenId",
          "type": "uint256"
        },
        {
          "internalType": "uint256",
          "name": "amount",
          "type": "uint256"
        }
      ],
      "name": "addPoints",
      "outputs": [],
      "stateMutability": "nonpayable",
      "type": "function"
    },
    {
      "inputs": [],
      "name": "loyaltyCardMaster",
      "outputs": [
        {
          "internalType": "contract ILoyaltyCardMaster",
          "name": "",
          "type": "address"
        }
      ],
      "stateMutability": "view",
      "type": "function"
    },
    {
      "inputs": [],
      "name": "owner",
      "outputs": [
        {
          "internalType": "address",
          "name": "",
          "type": "address"
        }
      ],
      "stateMutability": "view",
      "type": "function"
    },
    {
      "inputs": [
        {
          "internalType": "uint256",
          "name": "tokenId",
          "type": "uint256"
        },
        {
          "internalType": "uint256",
          "name": "amount",
          "type": "uint256"
        }
      ],
      "name": "redeemPointsForBenefit",
      "outputs": [],
      "stateMutability": "nonpayable",
      "type": "function"
    },
    {
      "inputs": [],
      "name": "renounceOwnership",
      "outputs": [],
      "stateMutability": "nonpayable",
      "type": "function"
    },
    {
      "inputs": [
        {
          "internalType": "address",
          "name": "newOwner",
          "type": "address"
        }
      ],
      "name": "transferOwnership",
      "outputs": [],
      "stateMutability": "nonpayable",
      "type": "function"
    }
  ],
  "transactionHash": "0x3079c31b92b101c95908977cc5300518234fb4bf5991b66b4be58e24de541cc4",
  "args": [
    "0x54897707cD993761fC5Ed333283014A28C50896d"
  ],
  "numDeployments": 1,
  "solcInputHash": "b045a79c1d1f130feafe624c5f839bab",
  "bytecode": "0x608060405234801561001057600080fd5b50604051610a9f380380610a9f83398181016040528101906100329190610176565b61004e61004361009560201b60201c565b61009d60201b60201c565b80600160006101000a81548173ffffffffffffffffffffffffffffffffffffffff021916908373ffffffffffffffffffffffffffffffffffffffff160217905550506101e8565b600033905090565b60008060009054906101000a900473ffffffffffffffffffffffffffffffffffffffff169050816000806101000a81548173ffffffffffffffffffffffffffffffffffffffff021916908373ffffffffffffffffffffffffffffffffffffffff1602179055508173ffffffffffffffffffffffffffffffffffffffff168173ffffffffffffffffffffffffffffffffffffffff167f8be0079c531659141344cd1fd0a4f28419497f9722a3daafe3b4186f6b6457e060405160405180910390a35050565b600081519050610170816101d1565b92915050565b60006020828403121561018857600080fd5b600061019684828501610161565b91505092915050565b60006101aa826101b1565b9050919050565b600073ffffffffffffffffffffffffffffffffffffffff82169050919050565b6101da8161019f565b81146101e557600080fd5b50565b6108a8806101f76000396000f3fe608060405234801561001057600080fd5b50600436106100625760003560e01c80631b6a630a14610067578063715018a6146100855780638da5cb5b1461008f578063f2fde38b146100ad578063fe4651a0146100c9578063fea74a4e146100e5575b600080fd5b61006f610101565b60405161007c91906106d7565b60405180910390f35b61008d610127565b005b6100976101af565b6040516100a491906106bc565b60405180910390f35b6100c760048036038101906100c291906105e4565b6101d8565b005b6100e360048036038101906100de919061060d565b6102d0565b005b6100ff60048036038101906100fa919061060d565b6103df565b005b600160009054906101000a900473ffffffffffffffffffffffffffffffffffffffff1681565b61012f6104ee565b73ffffffffffffffffffffffffffffffffffffffff1661014d6101af565b73ffffffffffffffffffffffffffffffffffffffff16146101a3576040517f08c379a000000000000000000000000000000000000000000000000000000000815260040161019a90610712565b60405180910390fd5b6101ad60006104f6565b565b60008060009054906101000a900473ffffffffffffffffffffffffffffffffffffffff16905090565b6101e06104ee565b73ffffffffffffffffffffffffffffffffffffffff166101fe6101af565b73ffffffffffffffffffffffffffffffffffffffff1614610254576040517f08c379a000000000000000000000000000000000000000000000000000000000815260040161024b90610712565b60405180910390fd5b600073ffffffffffffffffffffffffffffffffffffffff168173ffffffffffffffffffffffffffffffffffffffff1614156102c4576040517f08c379a00000000000000000000000000000000000000000000000000000000081526004016102bb906106f2565b60405180910390fd5b6102cd816104f6565b50565b6102d86104ee565b73ffffffffffffffffffffffffffffffffffffffff166102f66101af565b73ffffffffffffffffffffffffffffffffffffffff161461034c576040517f08c379a000000000000000000000000000000000000000000000000000000000815260040161034390610712565b60405180910390fd5b600160009054906101000a900473ffffffffffffffffffffffffffffffffffffffff1673ffffffffffffffffffffffffffffffffffffffff1663fe4651a083836040518363ffffffff1660e01b81526004016103a9929190610732565b600060405180830381600087803b1580156103c357600080fd5b505af11580156103d7573d6000803e3d6000fd5b505050505050565b6103e76104ee565b73ffffffffffffffffffffffffffffffffffffffff166104056101af565b73ffffffffffffffffffffffffffffffffffffffff161461045b576040517f08c379a000000000000000000000000000000000000000000000000000000000815260040161045290610712565b60405180910390fd5b600160009054906101000a900473ffffffffffffffffffffffffffffffffffffffff1673ffffffffffffffffffffffffffffffffffffffff1663c2e7043183836040518363ffffffff1660e01b81526004016104b8929190610732565b600060405180830381600087803b1580156104d257600080fd5b505af11580156104e6573d6000803e3d6000fd5b505050505050565b600033905090565b60008060009054906101000a900473ffffffffffffffffffffffffffffffffffffffff169050816000806101000a81548173ffffffffffffffffffffffffffffffffffffffff021916908373ffffffffffffffffffffffffffffffffffffffff1602179055508173ffffffffffffffffffffffffffffffffffffffff168173ffffffffffffffffffffffffffffffffffffffff167f8be0079c531659141344cd1fd0a4f28419497f9722a3daafe3b4186f6b6457e060405160405180910390a35050565b6000813590506105c981610844565b92915050565b6000813590506105de8161085b565b92915050565b6000602082840312156105f657600080fd5b6000610604848285016105ba565b91505092915050565b6000806040838503121561062057600080fd5b600061062e858286016105cf565b925050602061063f858286016105cf565b9150509250929050565b6106528161076c565b82525050565b610661816107a8565b82525050565b600061067460268361075b565b915061067f826107cc565b604082019050919050565b600061069760208361075b565b91506106a28261081b565b602082019050919050565b6106b68161079e565b82525050565b60006020820190506106d16000830184610649565b92915050565b60006020820190506106ec6000830184610658565b92915050565b6000602082019050818103600083015261070b81610667565b9050919050565b6000602082019050818103600083015261072b8161068a565b9050919050565b600060408201905061074760008301856106ad565b61075460208301846106ad565b9392505050565b600082825260208201905092915050565b60006107778261077e565b9050919050565b600073ffffffffffffffffffffffffffffffffffffffff82169050919050565b6000819050919050565b60006107b3826107ba565b9050919050565b60006107c58261077e565b9050919050565b7f4f776e61626c653a206e6577206f776e657220697320746865207a65726f206160008201527f6464726573730000000000000000000000000000000000000000000000000000602082015250565b7f4f776e61626c653a2063616c6c6572206973206e6f7420746865206f776e6572600082015250565b61084d8161076c565b811461085857600080fd5b50565b6108648161079e565b811461086f57600080fd5b5056fea2646970667358221220979a9da47262152539747830238343b5be6b6d44e96dbde64860cc6ec543639c64736f6c63430008040033",
  "devdoc": {
    "details": "This contract is responsible for ensuring that benefits are actually given upon loyalty point redemption. If there is any on-chain logic in this regard (associated with redemption), it should executed by this contract.",
    "kind": "dev",
    "methods": {
      "addPoints(uint256,uint256)": {
        "details": "Typically this would be called internally, but for this contract stub we allow the owner to call it."
      },
      "owner()": {
        "details": "Returns the address of the current owner."
      },
      "renounceOwnership()": {
        "details": "Leaves the contract without owner. It will not be possible to call `onlyOwner` functions anymore. Can only be called by the current owner. NOTE: Renouncing ownership will leave the contract without an owner, thereby removing any functionality that is only available to the owner."
      },
      "transferOwnership(address)": {
        "details": "Transfers ownership of the contract to a new account (`newOwner`). Can only be called by the current owner."
      }
    },
    "title": "LoyaltyCardOperator is meant to be used as an operator on the Impossible Finance LoyaltyCardMaster contract",
    "version": 1
  },
  "userdoc": {
    "kind": "user",
    "methods": {},
    "notice": "This contract can add and redeem loyalty points for benefits associated to the loyalty card nft holders.",
    "version": 1
  },
  "storageLayout": {
    "storage": [
      {
        "astId": 7,
        "contract": "contracts/LoyaltyCardOperator.sol:LoyaltyCardOperator",
        "label": "_owner",
        "offset": 0,
        "slot": "0",
        "type": "t_address"
      },
      {
        "astId": 2243,
        "contract": "contracts/LoyaltyCardOperator.sol:LoyaltyCardOperator",
        "label": "loyaltyCardMaster",
        "offset": 0,
        "slot": "1",
        "type": "t_contract(ILoyaltyCardMaster)1765"
      }
    ],
    "types": {
      "t_address": {
        "encoding": "inplace",
        "label": "address",
        "numberOfBytes": "20"
      },
      "t_contract(ILoyaltyCardMaster)1765": {
        "encoding": "inplace",
        "label": "contract ILoyaltyCardMaster",
        "numberOfBytes": "20"
      }
    }
  }
}